{
  "_format": "hh-sol-artifact-1",
  "contractName": "TMDToken",
  "sourceName": "contracts/TMDToken.sol",
  "abi": [
    {
      "inputs": [],
      "stateMutability": "nonpayable",
      "type": "constructor"
    },
    {
      "inputs": [],
      "name": "ECDSAInvalidSignature",
      "type": "error"
    },
    {
      "inputs": [
        {
          "internalType": "uint256",
          "name": "length",
          "type": "uint256"
        }
      ],
      "name": "ECDSAInvalidSignatureLength",
      "type": "error"
    },
    {
      "inputs": [
        {
          "internalType": "bytes32",
          "name": "s",
          "type": "bytes32"
        }
      ],
      "name": "ECDSAInvalidSignatureS",
      "type": "error"
    },
    {
      "inputs": [
        {
          "internalType": "address",
          "name": "spender",
          "type": "address"
        },
        {
          "internalType": "uint256",
          "name": "allowance",
          "type": "uint256"
        },
        {
          "internalType": "uint256",
          "name": "needed",
          "type": "uint256"
        }
      ],
      "name": "ERC20InsufficientAllowance",
      "type": "error"
    },
    {
      "inputs": [
        {
          "internalType": "address",
          "name": "sender",
          "type": "address"
        },
        {
          "internalType": "uint256",
          "name": "balance",
          "type": "uint256"
        },
        {
          "internalType": "uint256",
          "name": "needed",
          "type": "uint256"
        }
      ],
      "name": "ERC20InsufficientBalance",
      "type": "error"
    },
    {
      "inputs": [
        {
          "internalType": "address",
          "name": "approver",
          "type": "address"
        }
      ],
      "name": "ERC20InvalidApprover",
      "type": "error"
    },
    {
      "inputs": [
        {
          "internalType": "address",
          "name": "receiver",
          "type": "address"
        }
      ],
      "name": "ERC20InvalidReceiver",
      "type": "error"
    },
    {
      "inputs": [
        {
          "internalType": "address",
          "name": "sender",
          "type": "address"
        }
      ],
      "name": "ERC20InvalidSender",
      "type": "error"
    },
    {
      "inputs": [
        {
          "internalType": "address",
          "name": "spender",
          "type": "address"
        }
      ],
      "name": "ERC20InvalidSpender",
      "type": "error"
    },
    {
      "inputs": [
        {
          "internalType": "uint256",
          "name": "deadline",
          "type": "uint256"
        }
      ],
      "name": "ERC2612ExpiredSignature",
      "type": "error"
    },
    {
      "inputs": [
        {
          "internalType": "address",
          "name": "signer",
          "type": "address"
        },
        {
          "internalType": "address",
          "name": "owner",
          "type": "address"
        }
      ],
      "name": "ERC2612InvalidSigner",
      "type": "error"
    },
    {
      "inputs": [
        {
          "internalType": "address",
          "name": "account",
          "type": "address"
        },
        {
          "internalType": "uint256",
          "name": "currentNonce",
          "type": "uint256"
        }
      ],
      "name": "InvalidAccountNonce",
      "type": "error"
    },
    {
      "inputs": [],
      "name": "InvalidShortString",
      "type": "error"
    },
    {
      "inputs": [
        {
          "internalType": "address",
          "name": "owner",
          "type": "address"
        }
      ],
      "name": "OwnableInvalidOwner",
      "type": "error"
    },
    {
      "inputs": [
        {
          "internalType": "address",
          "name": "account",
          "type": "address"
        }
      ],
      "name": "OwnableUnauthorizedAccount",
      "type": "error"
    },
    {
      "inputs": [
        {
          "internalType": "string",
          "name": "str",
          "type": "string"
        }
      ],
      "name": "StringTooLong",
      "type": "error"
    },
    {
      "anonymous": false,
      "inputs": [
        {
          "indexed": true,
          "internalType": "address",
          "name": "owner",
          "type": "address"
        },
        {
          "indexed": true,
          "internalType": "address",
          "name": "spender",
          "type": "address"
        },
        {
          "indexed": false,
          "internalType": "uint256",
          "name": "value",
          "type": "uint256"
        }
      ],
      "name": "Approval",
      "type": "event"
    },
    {
      "anonymous": false,
      "inputs": [],
      "name": "EIP712DomainChanged",
      "type": "event"
    },
    {
      "anonymous": false,
      "inputs": [
        {
          "indexed": true,
          "internalType": "address",
          "name": "previousOwner",
          "type": "address"
        },
        {
          "indexed": true,
          "internalType": "address",
          "name": "newOwner",
          "type": "address"
        }
      ],
      "name": "OwnershipTransferred",
      "type": "event"
    },
    {
      "anonymous": false,
      "inputs": [
        {
          "indexed": true,
          "internalType": "address",
          "name": "from",
          "type": "address"
        },
        {
          "indexed": true,
          "internalType": "address",
          "name": "to",
          "type": "address"
        },
        {
          "indexed": false,
          "internalType": "uint256",
          "name": "value",
          "type": "uint256"
        }
      ],
      "name": "Transfer",
      "type": "event"
    },
    {
      "inputs": [],
      "name": "DOMAIN_SEPARATOR",
      "outputs": [
        {
          "internalType": "bytes32",
          "name": "",
          "type": "bytes32"
        }
      ],
      "stateMutability": "view",
      "type": "function"
    },
    {
      "inputs": [
        {
          "internalType": "address",
          "name": "owner",
          "type": "address"
        },
        {
          "internalType": "address",
          "name": "spender",
          "type": "address"
        }
      ],
      "name": "allowance",
      "outputs": [
        {
          "internalType": "uint256",
          "name": "",
          "type": "uint256"
        }
      ],
      "stateMutability": "view",
      "type": "function"
    },
    {
      "inputs": [
        {
          "internalType": "address",
          "name": "spender",
          "type": "address"
        },
        {
          "internalType": "uint256",
          "name": "value",
          "type": "uint256"
        }
      ],
      "name": "approve",
      "outputs": [
        {
          "internalType": "bool",
          "name": "",
          "type": "bool"
        }
      ],
      "stateMutability": "nonpayable",
      "type": "function"
    },
    {
      "inputs": [
        {
          "internalType": "address",
          "name": "account",
          "type": "address"
        }
      ],
      "name": "balanceOf",
      "outputs": [
        {
          "internalType": "uint256",
          "name": "",
          "type": "uint256"
        }
      ],
      "stateMutability": "view",
      "type": "function"
    },
    {
      "inputs": [
        {
          "internalType": "uint256",
          "name": "amount",
          "type": "uint256"
        }
      ],
      "name": "burn",
      "outputs": [],
      "stateMutability": "nonpayable",
      "type": "function"
    },
    {
      "inputs": [],
      "name": "burnedAmount",
      "outputs": [
        {
          "internalType": "uint256",
          "name": "",
          "type": "uint256"
        }
      ],
      "stateMutability": "view",
      "type": "function"
    },
    {
      "inputs": [
        {
          "internalType": "uint256",
          "name": "amount",
          "type": "uint256"
        }
      ],
      "name": "claim",
      "outputs": [],
      "stateMutability": "nonpayable",
      "type": "function"
    },
    {
      "inputs": [],
      "name": "claimedAmount",
      "outputs": [
        {
          "internalType": "uint256",
          "name": "",
          "type": "uint256"
        }
      ],
      "stateMutability": "view",
      "type": "function"
    },
    {
      "inputs": [],
      "name": "decimals",
      "outputs": [
        {
          "internalType": "uint8",
          "name": "",
          "type": "uint8"
        }
      ],
      "stateMutability": "view",
      "type": "function"
    },
    {
      "inputs": [],
      "name": "eip712Domain",
      "outputs": [
        {
          "internalType": "bytes1",
          "name": "fields",
          "type": "bytes1"
        },
        {
          "internalType": "string",
          "name": "name",
          "type": "string"
        },
        {
          "internalType": "string",
          "name": "version",
          "type": "string"
        },
        {
          "internalType": "uint256",
          "name": "chainId",
          "type": "uint256"
        },
        {
          "internalType": "address",
          "name": "verifyingContract",
          "type": "address"
        },
        {
          "internalType": "bytes32",
          "name": "salt",
          "type": "bytes32"
        },
        {
          "internalType": "uint256[]",
          "name": "extensions",
          "type": "uint256[]"
        }
      ],
      "stateMutability": "view",
      "type": "function"
    },
    {
      "inputs": [],
      "name": "getIsClaimable",
      "outputs": [
        {
          "internalType": "bool",
          "name": "",
          "type": "bool"
        }
      ],
      "stateMutability": "view",
      "type": "function"
    },
    {
      "inputs": [],
      "name": "name",
      "outputs": [
        {
          "internalType": "string",
          "name": "",
          "type": "string"
        }
      ],
      "stateMutability": "view",
      "type": "function"
    },
    {
      "inputs": [
        {
          "internalType": "address",
          "name": "owner",
          "type": "address"
        }
      ],
      "name": "nonces",
      "outputs": [
        {
          "internalType": "uint256",
          "name": "",
          "type": "uint256"
        }
      ],
      "stateMutability": "view",
      "type": "function"
    },
    {
      "inputs": [],
      "name": "owner",
      "outputs": [
        {
          "internalType": "address",
          "name": "",
          "type": "address"
        }
      ],
      "stateMutability": "view",
      "type": "function"
    },
    {
      "inputs": [
        {
          "internalType": "address",
          "name": "owner",
          "type": "address"
        },
        {
          "internalType": "address",
          "name": "spender",
          "type": "address"
        },
        {
          "internalType": "uint256",
          "name": "value",
          "type": "uint256"
        },
        {
          "internalType": "uint256",
          "name": "deadline",
          "type": "uint256"
        },
        {
          "internalType": "uint8",
          "name": "v",
          "type": "uint8"
        },
        {
          "internalType": "bytes32",
          "name": "r",
          "type": "bytes32"
        },
        {
          "internalType": "bytes32",
          "name": "s",
          "type": "bytes32"
        }
      ],
      "name": "permit",
      "outputs": [],
      "stateMutability": "nonpayable",
      "type": "function"
    },
    {
      "inputs": [],
      "name": "renounceOwnership",
      "outputs": [],
      "stateMutability": "nonpayable",
      "type": "function"
    },
    {
      "inputs": [
        {
          "internalType": "address",
          "name": "to",
          "type": "address"
        },
        {
          "internalType": "uint256",
          "name": "amount",
          "type": "uint256"
        }
      ],
      "name": "reward",
      "outputs": [],
      "stateMutability": "nonpayable",
      "type": "function"
    },
    {
      "inputs": [
        {
          "internalType": "bool",
          "name": "_isClaimable",
          "type": "bool"
        }
      ],
      "name": "setIsClaimable",
      "outputs": [],
      "stateMutability": "nonpayable",
      "type": "function"
    },
    {
      "inputs": [],
      "name": "symbol",
      "outputs": [
        {
          "internalType": "string",
          "name": "",
          "type": "string"
        }
      ],
      "stateMutability": "view",
      "type": "function"
    },
    {
      "inputs": [],
      "name": "totalSupply",
      "outputs": [
        {
          "internalType": "uint256",
          "name": "",
          "type": "uint256"
        }
      ],
      "stateMutability": "view",
      "type": "function"
    },
    {
      "inputs": [
        {
          "internalType": "address",
          "name": "to",
          "type": "address"
        },
        {
          "internalType": "uint256",
          "name": "value",
          "type": "uint256"
        }
      ],
      "name": "transfer",
      "outputs": [
        {
          "internalType": "bool",
          "name": "",
          "type": "bool"
        }
      ],
      "stateMutability": "nonpayable",
      "type": "function"
    },
    {
      "inputs": [
        {
          "internalType": "address",
          "name": "newOwner",
          "type": "address"
        }
      ],
      "name": "transferContractOwnership",
      "outputs": [],
      "stateMutability": "nonpayable",
      "type": "function"
    },
    {
      "inputs": [
        {
          "internalType": "address",
          "name": "from",
          "type": "address"
        },
        {
          "internalType": "address",
          "name": "to",
          "type": "address"
        },
        {
          "internalType": "uint256",
          "name": "value",
          "type": "uint256"
        }
      ],
      "name": "transferFrom",
      "outputs": [
        {
          "internalType": "bool",
          "name": "",
          "type": "bool"
        }
      ],
      "stateMutability": "nonpayable",
      "type": "function"
    },
    {
      "inputs": [
        {
          "internalType": "address",
          "name": "newOwner",
          "type": "address"
        }
      ],
      "name": "transferOwnership",
      "outputs": [],
      "stateMutability": "nonpayable",
      "type": "function"
    }
  ],
  "bytecode": "0x6101606040523480156200001257600080fd5b50604051806040016040528060088152602001672a26a22a37b5b2b760c11b81525080604051806040016040528060018152602001603160f81b81525033604051806040016040528060088152602001672a26a22a37b5b2b760c11b8152506040518060400160405280600381526020016215135160ea1b81525081600390816200009e919062000325565b506004620000ad828262000325565b5050506001600160a01b038116620000e057604051631e4fbdf760e01b8152600060048201526024015b60405180910390fd5b620000eb81620001b2565b50620000f982600662000204565b610120526200010a81600762000204565b61014052815160208084019190912060e052815190820120610100524660a0526200019860e05161010051604080517f8b73c3c69bb8fe3d512ecc4cf759cc79239f7b179b0ffacaa9a75d522b39400f60208201529081019290925260608201524660808201523060a082015260009060c00160405160208183030381529060405280519060200120905090565b60805250503060c05250600b805460ff1916905562000466565b600580546001600160a01b038381166001600160a01b0319831681179093556040519116919082907f8be0079c531659141344cd1fd0a4f28419497f9722a3daafe3b4186f6b6457e090600090a35050565b600060208351101562000224576200021c836200023d565b905062000237565b8162000231848262000325565b5060ff90505b92915050565b600080829050601f815111156200026b578260405163305a27a960e01b8152600401620000d79190620003f1565b8051620002788262000441565b179392505050565b634e487b7160e01b600052604160045260246000fd5b600181811c90821680620002ab57607f821691505b602082108103620002cc57634e487b7160e01b600052602260045260246000fd5b50919050565b601f8211156200032057600081815260208120601f850160051c81016020861015620002fb5750805b601f850160051c820191505b818110156200031c5782815560010162000307565b5050505b505050565b81516001600160401b0381111562000341576200034162000280565b620003598162000352845462000296565b84620002d2565b602080601f831160018114620003915760008415620003785750858301515b600019600386901b1c1916600185901b1785556200031c565b600085815260208120601f198616915b82811015620003c257888601518255948401946001909101908401620003a1565b5085821015620003e15787850151600019600388901b60f8161c191681555b5050505050600190811b01905550565b600060208083528351808285015260005b81811015620004205785810183015185820160400152820162000402565b506000604082860101526040601f19601f8301168501019250505092915050565b80516020808301519190811015620002cc5760001960209190910360031b1b16919050565b60805160a05160c05160e0516101005161012051610140516112f1620004c16000396000610abc01526000610a8f015260006109af01526000610987015260006108e20152600061090c0152600061093601526112f16000f3fe608060405234801561001057600080fd5b50600436106101585760003560e01c8063715018a6116100c3578063a60496501161007c578063a6049650146102bc578063a843c51f146102c7578063a9059cbb146102da578063d505accf146102ed578063dd62ed3e14610300578063f2fde38b1461033957600080fd5b8063715018a61461025a5780637ecebe001461026257806384b0196e146102755780638da5cb5b1461029057806395d89b41146102ab5780639668ceb8146102b357600080fd5b80633644e515116101155780633644e515146101e7578063379607f5146101ef578063408fb0be1461020257806342966c681461021557806350e15fdd1461022857806370a082311461023157600080fd5b806306fdde031461015d578063095ea7b31461017b57806318160ddd1461019e57806321670f22146101b057806323b872dd146101c5578063313ce567146101d8575b600080fd5b61016561034c565b604051610172919061101c565b60405180910390f35b61018e610189366004611052565b6103de565b6040519015158152602001610172565b6002545b604051908152602001610172565b6101c36101be366004611052565b6103f8565b005b61018e6101d336600461107c565b61040e565b60405160128152602001610172565b6101a2610432565b6101c36101fd3660046110b8565b610441565b6101c36102103660046110d1565b610527565b6101c36102233660046110b8565b610542565b6101a260095481565b6101a261023f3660046110f3565b6001600160a01b031660009081526020819052604090205490565b6101c3610565565b6101a26102703660046110f3565b610579565b61027d610597565b604051610172979695949392919061110e565b6005546040516001600160a01b039091168152602001610172565b6101656105dd565b6101a2600a5481565b600b5460ff1661018e565b6101c36102d53660046110f3565b6105ec565b61018e6102e8366004611052565b610600565b6101c36102fb3660046111a4565b61060e565b6101a261030e366004611217565b6001600160a01b03918216600090815260016020908152604080832093909416825291909152205490565b6101c36103473660046110f3565b610748565b60606003805461035b9061124a565b80601f01602080910402602001604051908101604052809291908181526020018280546103879061124a565b80156103d45780601f106103a9576101008083540402835291602001916103d4565b820191906000526020600020905b8154815290600101906020018083116103b757829003601f168201915b5050505050905090565b6000336103ec818585610783565b60019150505b92915050565b610400610795565b61040a82826107c2565b5050565b60003361041c8582856107f8565b610427858585610876565b506001949350505050565b600061043c6108d5565b905090565b600b5460ff166104aa5760405162461bcd60e51b815260206004820152602960248201527f546f6b656e20636c61696d7320617265206e6f7420616c6c6f77656420617420604482015268746869732074696d6560b81b60648201526084015b60405180910390fd5b806104b43361023f565b10156105025760405162461bcd60e51b815260206004820152601a60248201527f4e6f7420656e6f75676820746f6b656e7320746f20636c61696d00000000000060448201526064016104a1565b61050d335b82610a00565b80600a600082825461051f9190611284565b909155505050565b61052f610795565b600b805460ff1916911515919091179055565b61054a610795565b61055333610507565b806009600082825461051f9190611284565b61056d610795565b6105776000610a36565b565b6001600160a01b0381166000908152600860205260408120546103f2565b6000606080600080600060606105ab610a88565b6105b3610ab5565b60408051600080825260208201909252600f60f81b9b939a50919850469750309650945092509050565b60606004805461035b9061124a565b6105f4610795565b6105fd81610748565b50565b6000336103ec818585610876565b834211156106325760405163313c898160e11b8152600481018590526024016104a1565b60007f6e71edae12b1b97f4d1f60370fef10105fa2faae0126114a169c64845d6126c988888861067f8c6001600160a01b0316600090815260086020526040902080546001810190915590565b6040805160208101969096526001600160a01b0394851690860152929091166060840152608083015260a082015260c0810186905260e00160405160208183030381529060405280519060200120905060006106da82610ae2565b905060006106ea82878787610b0f565b9050896001600160a01b0316816001600160a01b031614610731576040516325c0072360e11b81526001600160a01b0380831660048301528b1660248201526044016104a1565b61073c8a8a8a610783565b50505050505050505050565b610750610795565b6001600160a01b03811661077a57604051631e4fbdf760e01b8152600060048201526024016104a1565b6105fd81610a36565b6107908383836001610b3d565b505050565b6005546001600160a01b031633146105775760405163118cdaa760e01b81523360048201526024016104a1565b6001600160a01b0382166107ec5760405163ec442f0560e01b8152600060048201526024016104a1565b61040a60008383610c12565b6001600160a01b038381166000908152600160209081526040808320938616835292905220546000198114610870578181101561086157604051637dc7a0d960e11b81526001600160a01b038416600482015260248101829052604481018390526064016104a1565b61087084848484036000610b3d565b50505050565b6001600160a01b0383166108a057604051634b637e8f60e11b8152600060048201526024016104a1565b6001600160a01b0382166108ca5760405163ec442f0560e01b8152600060048201526024016104a1565b610790838383610c12565b6000306001600160a01b037f00000000000000000000000000000000000000000000000000000000000000001614801561092e57507f000000000000000000000000000000000000000000000000000000000000000046145b1561095857507f000000000000000000000000000000000000000000000000000000000000000090565b61043c604080517f8b73c3c69bb8fe3d512ecc4cf759cc79239f7b179b0ffacaa9a75d522b39400f60208201527f0000000000000000000000000000000000000000000000000000000000000000918101919091527f000000000000000000000000000000000000000000000000000000000000000060608201524660808201523060a082015260009060c00160405160208183030381529060405280519060200120905090565b6001600160a01b038216610a2a57604051634b637e8f60e11b8152600060048201526024016104a1565b61040a82600083610c12565b600580546001600160a01b038381166001600160a01b0319831681179093556040519116919082907f8be0079c531659141344cd1fd0a4f28419497f9722a3daafe3b4186f6b6457e090600090a35050565b606061043c7f00000000000000000000000000000000000000000000000000000000000000006006610d3c565b606061043c7f00000000000000000000000000000000000000000000000000000000000000006007610d3c565b60006103f2610aef6108d5565b8360405161190160f01b8152600281019290925260228201526042902090565b600080600080610b2188888888610de7565b925092509250610b318282610eb6565b50909695505050505050565b6001600160a01b038416610b675760405163e602df0560e01b8152600060048201526024016104a1565b6001600160a01b038316610b9157604051634a1406b160e11b8152600060048201526024016104a1565b6001600160a01b038085166000908152600160209081526040808320938716835292905220829055801561087057826001600160a01b0316846001600160a01b03167f8c5be1e5ebec7d5bd14f71427d1e84f3dd0314c0f7b2291e5b200ac8c7c3b92584604051610c0491815260200190565b60405180910390a350505050565b6001600160a01b038316610c3d578060026000828254610c329190611284565b90915550610caf9050565b6001600160a01b03831660009081526020819052604090205481811015610c905760405163391434e360e21b81526001600160a01b038516600482015260248101829052604481018390526064016104a1565b6001600160a01b03841660009081526020819052604090209082900390555b6001600160a01b038216610ccb57600280548290039055610cea565b6001600160a01b03821660009081526020819052604090208054820190555b816001600160a01b0316836001600160a01b03167fddf252ad1be2c89b69c2b068fc378daa952ba7f163c4a11628f55a4df523b3ef83604051610d2f91815260200190565b60405180910390a3505050565b606060ff8314610d5657610d4f83610f6f565b90506103f2565b818054610d629061124a565b80601f0160208091040260200160405190810160405280929190818152602001828054610d8e9061124a565b8015610ddb5780601f10610db057610100808354040283529160200191610ddb565b820191906000526020600020905b815481529060010190602001808311610dbe57829003601f168201915b505050505090506103f2565b600080807f7fffffffffffffffffffffffffffffff5d576e7357a4501ddfe92f46681b20a0841115610e225750600091506003905082610eac565b604080516000808252602082018084528a905260ff891692820192909252606081018790526080810186905260019060a0016020604051602081039080840390855afa158015610e76573d6000803e3d6000fd5b5050604051601f1901519150506001600160a01b038116610ea257506000925060019150829050610eac565b9250600091508190505b9450945094915050565b6000826003811115610eca57610eca6112a5565b03610ed3575050565b6001826003811115610ee757610ee76112a5565b03610f055760405163f645eedf60e01b815260040160405180910390fd5b6002826003811115610f1957610f196112a5565b03610f3a5760405163fce698f760e01b8152600481018290526024016104a1565b6003826003811115610f4e57610f4e6112a5565b0361040a576040516335e2f38360e21b8152600481018290526024016104a1565b60606000610f7c83610fae565b604080516020808252818301909252919250600091906020820181803683375050509182525060208101929092525090565b600060ff8216601f8111156103f257604051632cd44ac360e21b815260040160405180910390fd5b6000815180845260005b81811015610ffc57602081850181015186830182015201610fe0565b506000602082860101526020601f19601f83011685010191505092915050565b60208152600061102f6020830184610fd6565b9392505050565b80356001600160a01b038116811461104d57600080fd5b919050565b6000806040838503121561106557600080fd5b61106e83611036565b946020939093013593505050565b60008060006060848603121561109157600080fd5b61109a84611036565b92506110a860208501611036565b9150604084013590509250925092565b6000602082840312156110ca57600080fd5b5035919050565b6000602082840312156110e357600080fd5b8135801515811461102f57600080fd5b60006020828403121561110557600080fd5b61102f82611036565b60ff60f81b881681526000602060e08184015261112e60e084018a610fd6565b8381036040850152611140818a610fd6565b606085018990526001600160a01b038816608086015260a0850187905284810360c0860152855180825283870192509083019060005b8181101561119257835183529284019291840191600101611176565b50909c9b505050505050505050505050565b600080600080600080600060e0888a0312156111bf57600080fd5b6111c888611036565b96506111d660208901611036565b95506040880135945060608801359350608088013560ff811681146111fa57600080fd5b9699959850939692959460a0840135945060c09093013592915050565b6000806040838503121561122a57600080fd5b61123383611036565b915061124160208401611036565b90509250929050565b600181811c9082168061125e57607f821691505b60208210810361127e57634e487b7160e01b600052602260045260246000fd5b50919050565b808201808211156103f257634e487b7160e01b600052601160045260246000fd5b634e487b7160e01b600052602160045260246000fdfea2646970667358221220c346b33c3835e540ffa13a5bb12351e49c5addf8f6bb10cac0d47d74ef7cfc0e64736f6c63430008140033",
  "linkReferences": {},
  "deployedLinkReferences": {}
}