{
  "_format": "hh-sol-artifact-1",
  "contractName": "TMDToken",
  "sourceName": "contracts/TMDToken.sol",
  "abi": [
    {
      "inputs": [],
      "stateMutability": "nonpayable",
      "type": "constructor"
    },
    {
      "inputs": [],
      "name": "ECDSAInvalidSignature",
      "type": "error"
    },
    {
      "inputs": [
        {
          "internalType": "uint256",
          "name": "length",
          "type": "uint256"
        }
      ],
      "name": "ECDSAInvalidSignatureLength",
      "type": "error"
    },
    {
      "inputs": [
        {
          "internalType": "bytes32",
          "name": "s",
          "type": "bytes32"
        }
      ],
      "name": "ECDSAInvalidSignatureS",
      "type": "error"
    },
    {
      "inputs": [
        {
          "internalType": "address",
          "name": "spender",
          "type": "address"
        },
        {
          "internalType": "uint256",
          "name": "allowance",
          "type": "uint256"
        },
        {
          "internalType": "uint256",
          "name": "needed",
          "type": "uint256"
        }
      ],
      "name": "ERC20InsufficientAllowance",
      "type": "error"
    },
    {
      "inputs": [
        {
          "internalType": "address",
          "name": "sender",
          "type": "address"
        },
        {
          "internalType": "uint256",
          "name": "balance",
          "type": "uint256"
        },
        {
          "internalType": "uint256",
          "name": "needed",
          "type": "uint256"
        }
      ],
      "name": "ERC20InsufficientBalance",
      "type": "error"
    },
    {
      "inputs": [
        {
          "internalType": "address",
          "name": "approver",
          "type": "address"
        }
      ],
      "name": "ERC20InvalidApprover",
      "type": "error"
    },
    {
      "inputs": [
        {
          "internalType": "address",
          "name": "receiver",
          "type": "address"
        }
      ],
      "name": "ERC20InvalidReceiver",
      "type": "error"
    },
    {
      "inputs": [
        {
          "internalType": "address",
          "name": "sender",
          "type": "address"
        }
      ],
      "name": "ERC20InvalidSender",
      "type": "error"
    },
    {
      "inputs": [
        {
          "internalType": "address",
          "name": "spender",
          "type": "address"
        }
      ],
      "name": "ERC20InvalidSpender",
      "type": "error"
    },
    {
      "inputs": [
        {
          "internalType": "uint256",
          "name": "deadline",
          "type": "uint256"
        }
      ],
      "name": "ERC2612ExpiredSignature",
      "type": "error"
    },
    {
      "inputs": [
        {
          "internalType": "address",
          "name": "signer",
          "type": "address"
        },
        {
          "internalType": "address",
          "name": "owner",
          "type": "address"
        }
      ],
      "name": "ERC2612InvalidSigner",
      "type": "error"
    },
    {
      "inputs": [
        {
          "internalType": "address",
          "name": "account",
          "type": "address"
        },
        {
          "internalType": "uint256",
          "name": "currentNonce",
          "type": "uint256"
        }
      ],
      "name": "InvalidAccountNonce",
      "type": "error"
    },
    {
      "inputs": [],
      "name": "InvalidShortString",
      "type": "error"
    },
    {
      "inputs": [
        {
          "internalType": "address",
          "name": "owner",
          "type": "address"
        }
      ],
      "name": "OwnableInvalidOwner",
      "type": "error"
    },
    {
      "inputs": [
        {
          "internalType": "address",
          "name": "account",
          "type": "address"
        }
      ],
      "name": "OwnableUnauthorizedAccount",
      "type": "error"
    },
    {
      "inputs": [
        {
          "internalType": "string",
          "name": "str",
          "type": "string"
        }
      ],
      "name": "StringTooLong",
      "type": "error"
    },
    {
      "anonymous": false,
      "inputs": [
        {
          "indexed": true,
          "internalType": "address",
          "name": "owner",
          "type": "address"
        },
        {
          "indexed": true,
          "internalType": "address",
          "name": "spender",
          "type": "address"
        },
        {
          "indexed": false,
          "internalType": "uint256",
          "name": "value",
          "type": "uint256"
        }
      ],
      "name": "Approval",
      "type": "event"
    },
    {
      "anonymous": false,
      "inputs": [],
      "name": "EIP712DomainChanged",
      "type": "event"
    },
    {
      "anonymous": false,
      "inputs": [
        {
          "indexed": true,
          "internalType": "address",
          "name": "previousOwner",
          "type": "address"
        },
        {
          "indexed": true,
          "internalType": "address",
          "name": "newOwner",
          "type": "address"
        }
      ],
      "name": "OwnershipTransferred",
      "type": "event"
    },
    {
      "anonymous": false,
      "inputs": [
        {
          "indexed": true,
          "internalType": "address",
          "name": "from",
          "type": "address"
        },
        {
          "indexed": true,
          "internalType": "address",
          "name": "to",
          "type": "address"
        },
        {
          "indexed": false,
          "internalType": "uint256",
          "name": "value",
          "type": "uint256"
        }
      ],
      "name": "Transfer",
      "type": "event"
    },
    {
      "inputs": [],
      "name": "DOMAIN_SEPARATOR",
      "outputs": [
        {
          "internalType": "bytes32",
          "name": "",
          "type": "bytes32"
        }
      ],
      "stateMutability": "view",
      "type": "function"
    },
    {
      "inputs": [
        {
          "internalType": "address",
          "name": "owner",
          "type": "address"
        },
        {
          "internalType": "address",
          "name": "spender",
          "type": "address"
        }
      ],
      "name": "allowance",
      "outputs": [
        {
          "internalType": "uint256",
          "name": "",
          "type": "uint256"
        }
      ],
      "stateMutability": "view",
      "type": "function"
    },
    {
      "inputs": [
        {
          "internalType": "address",
          "name": "spender",
          "type": "address"
        },
        {
          "internalType": "uint256",
          "name": "value",
          "type": "uint256"
        }
      ],
      "name": "approve",
      "outputs": [
        {
          "internalType": "bool",
          "name": "",
          "type": "bool"
        }
      ],
      "stateMutability": "nonpayable",
      "type": "function"
    },
    {
      "inputs": [
        {
          "internalType": "address",
          "name": "account",
          "type": "address"
        }
      ],
      "name": "balanceOf",
      "outputs": [
        {
          "internalType": "uint256",
          "name": "",
          "type": "uint256"
        }
      ],
      "stateMutability": "view",
      "type": "function"
    },
    {
      "inputs": [
        {
          "internalType": "uint256",
          "name": "amount",
          "type": "uint256"
        }
      ],
      "name": "burn",
      "outputs": [],
      "stateMutability": "nonpayable",
      "type": "function"
    },
    {
      "inputs": [],
      "name": "burnedAmount",
      "outputs": [
        {
          "internalType": "uint256",
          "name": "",
          "type": "uint256"
        }
      ],
      "stateMutability": "view",
      "type": "function"
    },
    {
      "inputs": [
        {
          "internalType": "uint256",
          "name": "amount",
          "type": "uint256"
        }
      ],
      "name": "claim",
      "outputs": [],
      "stateMutability": "nonpayable",
      "type": "function"
    },
    {
      "inputs": [],
      "name": "claimedAmount",
      "outputs": [
        {
          "internalType": "uint256",
          "name": "",
          "type": "uint256"
        }
      ],
      "stateMutability": "view",
      "type": "function"
    },
    {
      "inputs": [],
      "name": "decimals",
      "outputs": [
        {
          "internalType": "uint8",
          "name": "",
          "type": "uint8"
        }
      ],
      "stateMutability": "view",
      "type": "function"
    },
    {
      "inputs": [],
      "name": "eip712Domain",
      "outputs": [
        {
          "internalType": "bytes1",
          "name": "fields",
          "type": "bytes1"
        },
        {
          "internalType": "string",
          "name": "name",
          "type": "string"
        },
        {
          "internalType": "string",
          "name": "version",
          "type": "string"
        },
        {
          "internalType": "uint256",
          "name": "chainId",
          "type": "uint256"
        },
        {
          "internalType": "address",
          "name": "verifyingContract",
          "type": "address"
        },
        {
          "internalType": "bytes32",
          "name": "salt",
          "type": "bytes32"
        },
        {
          "internalType": "uint256[]",
          "name": "extensions",
          "type": "uint256[]"
        }
      ],
      "stateMutability": "view",
      "type": "function"
    },
    {
      "inputs": [],
      "name": "name",
      "outputs": [
        {
          "internalType": "string",
          "name": "",
          "type": "string"
        }
      ],
      "stateMutability": "view",
      "type": "function"
    },
    {
      "inputs": [
        {
          "internalType": "address",
          "name": "owner",
          "type": "address"
        }
      ],
      "name": "nonces",
      "outputs": [
        {
          "internalType": "uint256",
          "name": "",
          "type": "uint256"
        }
      ],
      "stateMutability": "view",
      "type": "function"
    },
    {
      "inputs": [],
      "name": "owner",
      "outputs": [
        {
          "internalType": "address",
          "name": "",
          "type": "address"
        }
      ],
      "stateMutability": "view",
      "type": "function"
    },
    {
      "inputs": [
        {
          "internalType": "address",
          "name": "owner",
          "type": "address"
        },
        {
          "internalType": "address",
          "name": "spender",
          "type": "address"
        },
        {
          "internalType": "uint256",
          "name": "value",
          "type": "uint256"
        },
        {
          "internalType": "uint256",
          "name": "deadline",
          "type": "uint256"
        },
        {
          "internalType": "uint8",
          "name": "v",
          "type": "uint8"
        },
        {
          "internalType": "bytes32",
          "name": "r",
          "type": "bytes32"
        },
        {
          "internalType": "bytes32",
          "name": "s",
          "type": "bytes32"
        }
      ],
      "name": "permit",
      "outputs": [],
      "stateMutability": "nonpayable",
      "type": "function"
    },
    {
      "inputs": [],
      "name": "renounceOwnership",
      "outputs": [],
      "stateMutability": "nonpayable",
      "type": "function"
    },
    {
      "inputs": [
        {
          "internalType": "address",
          "name": "to",
          "type": "address"
        },
        {
          "internalType": "uint256",
          "name": "amount",
          "type": "uint256"
        }
      ],
      "name": "reward",
      "outputs": [],
      "stateMutability": "nonpayable",
      "type": "function"
    },
    {
      "inputs": [],
      "name": "symbol",
      "outputs": [
        {
          "internalType": "string",
          "name": "",
          "type": "string"
        }
      ],
      "stateMutability": "view",
      "type": "function"
    },
    {
      "inputs": [],
      "name": "totalSupply",
      "outputs": [
        {
          "internalType": "uint256",
          "name": "",
          "type": "uint256"
        }
      ],
      "stateMutability": "view",
      "type": "function"
    },
    {
      "inputs": [
        {
          "internalType": "address",
          "name": "to",
          "type": "address"
        },
        {
          "internalType": "uint256",
          "name": "value",
          "type": "uint256"
        }
      ],
      "name": "transfer",
      "outputs": [
        {
          "internalType": "bool",
          "name": "",
          "type": "bool"
        }
      ],
      "stateMutability": "nonpayable",
      "type": "function"
    },
    {
      "inputs": [
        {
          "internalType": "address",
          "name": "newOwner",
          "type": "address"
        }
      ],
      "name": "transferContractOwnership",
      "outputs": [],
      "stateMutability": "nonpayable",
      "type": "function"
    },
    {
      "inputs": [
        {
          "internalType": "address",
          "name": "from",
          "type": "address"
        },
        {
          "internalType": "address",
          "name": "to",
          "type": "address"
        },
        {
          "internalType": "uint256",
          "name": "value",
          "type": "uint256"
        }
      ],
      "name": "transferFrom",
      "outputs": [
        {
          "internalType": "bool",
          "name": "",
          "type": "bool"
        }
      ],
      "stateMutability": "nonpayable",
      "type": "function"
    },
    {
      "inputs": [
        {
          "internalType": "address",
          "name": "newOwner",
          "type": "address"
        }
      ],
      "name": "transferOwnership",
      "outputs": [],
      "stateMutability": "nonpayable",
      "type": "function"
    }
  ],
  "bytecode": "0x6101606040523480156200001257600080fd5b50604051806040016040528060088152602001672a26a22a37b5b2b760c11b81525080604051806040016040528060018152602001603160f81b81525033604051806040016040528060088152602001672a26a22a37b5b2b760c11b8152506040518060400160405280600381526020016215135160ea1b81525081600390816200009e91906200031b565b506004620000ad82826200031b565b5050506001600160a01b038116620000e057604051631e4fbdf760e01b8152600060048201526024015b60405180910390fd5b620000eb81620001a8565b50620000f9826006620001fa565b610120526200010a816007620001fa565b61014052815160208084019190912060e052815190820120610100524660a0526200019860e05161010051604080517f8b73c3c69bb8fe3d512ecc4cf759cc79239f7b179b0ffacaa9a75d522b39400f60208201529081019290925260608201524660808201523060a082015260009060c00160405160208183030381529060405280519060200120905090565b60805250503060c052506200045c565b600580546001600160a01b038381166001600160a01b0319831681179093556040519116919082907f8be0079c531659141344cd1fd0a4f28419497f9722a3daafe3b4186f6b6457e090600090a35050565b60006020835110156200021a57620002128362000233565b90506200022d565b816200022784826200031b565b5060ff90505b92915050565b600080829050601f8151111562000261578260405163305a27a960e01b8152600401620000d79190620003e7565b80516200026e8262000437565b179392505050565b634e487b7160e01b600052604160045260246000fd5b600181811c90821680620002a157607f821691505b602082108103620002c257634e487b7160e01b600052602260045260246000fd5b50919050565b601f8211156200031657600081815260208120601f850160051c81016020861015620002f15750805b601f850160051c820191505b818110156200031257828155600101620002fd565b5050505b505050565b81516001600160401b0381111562000337576200033762000276565b6200034f816200034884546200028c565b84620002c8565b602080601f8311600181146200038757600084156200036e5750858301515b600019600386901b1c1916600185901b17855562000312565b600085815260208120601f198616915b82811015620003b85788860151825594840194600190910190840162000397565b5085821015620003d75787850151600019600388901b60f8161c191681555b5050505050600190811b01905550565b600060208083528351808285015260005b818110156200041657858101830151858201604001528201620003f8565b506000604082860101526040601f19601f8301168501019250505092915050565b80516020808301519190811015620002c25760001960209190910360031b1b16919050565b60805160a05160c05160e05161010051610120516101405161121c620004b76000396000610a09015260006109dc015260006108fc015260006108d40152600061082f0152600061085901526000610883015261121c6000f3fe608060405234801561001057600080fd5b50600436106101425760003560e01c8063715018a6116100b85780639668ceb81161007c5780639668ceb81461028a578063a843c51f14610293578063a9059cbb146102a6578063d505accf146102b9578063dd62ed3e146102cc578063f2fde38b1461030557600080fd5b8063715018a6146102315780637ecebe001461023957806384b0196e1461024c5780638da5cb5b1461026757806395d89b411461028257600080fd5b8063313ce5671161010a578063313ce567146101c25780633644e515146101d1578063379607f5146101d957806342966c68146101ec57806350e15fdd146101ff57806370a082311461020857600080fd5b806306fdde0314610147578063095ea7b31461016557806318160ddd1461018857806321670f221461019a57806323b872dd146101af575b600080fd5b61014f610318565b60405161015c9190610f69565b60405180910390f35b610178610173366004610f9f565b6103aa565b604051901515815260200161015c565b6002545b60405190815260200161015c565b6101ad6101a8366004610f9f565b6103c4565b005b6101786101bd366004610fc9565b6103da565b6040516012815260200161015c565b61018c6103fe565b6101ad6101e7366004611005565b61040d565b6101ad6101fa366004611005565b61048f565b61018c60095481565b61018c61021636600461101e565b6001600160a01b031660009081526020819052604090205490565b6101ad6104b2565b61018c61024736600461101e565b6104c6565b6102546104e4565b60405161015c9796959493929190611039565b6005546040516001600160a01b03909116815260200161015c565b61014f61052a565b61018c600a5481565b6101ad6102a136600461101e565b610539565b6101786102b4366004610f9f565b61054d565b6101ad6102c73660046110cf565b61055b565b61018c6102da366004611142565b6001600160a01b03918216600090815260016020908152604080832093909416825291909152205490565b6101ad61031336600461101e565b610695565b60606003805461032790611175565b80601f016020809104026020016040519081016040528092919081815260200182805461035390611175565b80156103a05780601f10610375576101008083540402835291602001916103a0565b820191906000526020600020905b81548152906001019060200180831161038357829003601f168201915b5050505050905090565b6000336103b88185856106d0565b60019150505b92915050565b6103cc6106e2565b6103d6828261070f565b5050565b6000336103e8858285610745565b6103f38585856107c3565b506001949350505050565b6000610408610822565b905090565b8061041733610216565b101561046a5760405162461bcd60e51b815260206004820152601a60248201527f4e6f7420656e6f75676820746f6b656e7320746f20636c61696d00000000000060448201526064015b60405180910390fd5b610475335b8261094d565b80600a600082825461048791906111af565b909155505050565b6104976106e2565b6104a03361046f565b806009600082825461048791906111af565b6104ba6106e2565b6104c46000610983565b565b6001600160a01b0381166000908152600860205260408120546103be565b6000606080600080600060606104f86109d5565b610500610a02565b60408051600080825260208201909252600f60f81b9b939a50919850469750309650945092509050565b60606004805461032790611175565b6105416106e2565b61054a81610695565b50565b6000336103b88185856107c3565b8342111561057f5760405163313c898160e11b815260048101859052602401610461565b60007f6e71edae12b1b97f4d1f60370fef10105fa2faae0126114a169c64845d6126c98888886105cc8c6001600160a01b0316600090815260086020526040902080546001810190915590565b6040805160208101969096526001600160a01b0394851690860152929091166060840152608083015260a082015260c0810186905260e001604051602081830303815290604052805190602001209050600061062782610a2f565b9050600061063782878787610a5c565b9050896001600160a01b0316816001600160a01b03161461067e576040516325c0072360e11b81526001600160a01b0380831660048301528b166024820152604401610461565b6106898a8a8a6106d0565b50505050505050505050565b61069d6106e2565b6001600160a01b0381166106c757604051631e4fbdf760e01b815260006004820152602401610461565b61054a81610983565b6106dd8383836001610a8a565b505050565b6005546001600160a01b031633146104c45760405163118cdaa760e01b8152336004820152602401610461565b6001600160a01b0382166107395760405163ec442f0560e01b815260006004820152602401610461565b6103d660008383610b5f565b6001600160a01b0383811660009081526001602090815260408083209386168352929052205460001981146107bd57818110156107ae57604051637dc7a0d960e11b81526001600160a01b03841660048201526024810182905260448101839052606401610461565b6107bd84848484036000610a8a565b50505050565b6001600160a01b0383166107ed57604051634b637e8f60e11b815260006004820152602401610461565b6001600160a01b0382166108175760405163ec442f0560e01b815260006004820152602401610461565b6106dd838383610b5f565b6000306001600160a01b037f00000000000000000000000000000000000000000000000000000000000000001614801561087b57507f000000000000000000000000000000000000000000000000000000000000000046145b156108a557507f000000000000000000000000000000000000000000000000000000000000000090565b610408604080517f8b73c3c69bb8fe3d512ecc4cf759cc79239f7b179b0ffacaa9a75d522b39400f60208201527f0000000000000000000000000000000000000000000000000000000000000000918101919091527f000000000000000000000000000000000000000000000000000000000000000060608201524660808201523060a082015260009060c00160405160208183030381529060405280519060200120905090565b6001600160a01b03821661097757604051634b637e8f60e11b815260006004820152602401610461565b6103d682600083610b5f565b600580546001600160a01b038381166001600160a01b0319831681179093556040519116919082907f8be0079c531659141344cd1fd0a4f28419497f9722a3daafe3b4186f6b6457e090600090a35050565b60606104087f00000000000000000000000000000000000000000000000000000000000000006006610c89565b60606104087f00000000000000000000000000000000000000000000000000000000000000006007610c89565b60006103be610a3c610822565b8360405161190160f01b8152600281019290925260228201526042902090565b600080600080610a6e88888888610d34565b925092509250610a7e8282610e03565b50909695505050505050565b6001600160a01b038416610ab45760405163e602df0560e01b815260006004820152602401610461565b6001600160a01b038316610ade57604051634a1406b160e11b815260006004820152602401610461565b6001600160a01b03808516600090815260016020908152604080832093871683529290522082905580156107bd57826001600160a01b0316846001600160a01b03167f8c5be1e5ebec7d5bd14f71427d1e84f3dd0314c0f7b2291e5b200ac8c7c3b92584604051610b5191815260200190565b60405180910390a350505050565b6001600160a01b038316610b8a578060026000828254610b7f91906111af565b90915550610bfc9050565b6001600160a01b03831660009081526020819052604090205481811015610bdd5760405163391434e360e21b81526001600160a01b03851660048201526024810182905260448101839052606401610461565b6001600160a01b03841660009081526020819052604090209082900390555b6001600160a01b038216610c1857600280548290039055610c37565b6001600160a01b03821660009081526020819052604090208054820190555b816001600160a01b0316836001600160a01b03167fddf252ad1be2c89b69c2b068fc378daa952ba7f163c4a11628f55a4df523b3ef83604051610c7c91815260200190565b60405180910390a3505050565b606060ff8314610ca357610c9c83610ebc565b90506103be565b818054610caf90611175565b80601f0160208091040260200160405190810160405280929190818152602001828054610cdb90611175565b8015610d285780601f10610cfd57610100808354040283529160200191610d28565b820191906000526020600020905b815481529060010190602001808311610d0b57829003601f168201915b505050505090506103be565b600080807f7fffffffffffffffffffffffffffffff5d576e7357a4501ddfe92f46681b20a0841115610d6f5750600091506003905082610df9565b604080516000808252602082018084528a905260ff891692820192909252606081018790526080810186905260019060a0016020604051602081039080840390855afa158015610dc3573d6000803e3d6000fd5b5050604051601f1901519150506001600160a01b038116610def57506000925060019150829050610df9565b9250600091508190505b9450945094915050565b6000826003811115610e1757610e176111d0565b03610e20575050565b6001826003811115610e3457610e346111d0565b03610e525760405163f645eedf60e01b815260040160405180910390fd5b6002826003811115610e6657610e666111d0565b03610e875760405163fce698f760e01b815260048101829052602401610461565b6003826003811115610e9b57610e9b6111d0565b036103d6576040516335e2f38360e21b815260048101829052602401610461565b60606000610ec983610efb565b604080516020808252818301909252919250600091906020820181803683375050509182525060208101929092525090565b600060ff8216601f8111156103be57604051632cd44ac360e21b815260040160405180910390fd5b6000815180845260005b81811015610f4957602081850181015186830182015201610f2d565b506000602082860101526020601f19601f83011685010191505092915050565b602081526000610f7c6020830184610f23565b9392505050565b80356001600160a01b0381168114610f9a57600080fd5b919050565b60008060408385031215610fb257600080fd5b610fbb83610f83565b946020939093013593505050565b600080600060608486031215610fde57600080fd5b610fe784610f83565b9250610ff560208501610f83565b9150604084013590509250925092565b60006020828403121561101757600080fd5b5035919050565b60006020828403121561103057600080fd5b610f7c82610f83565b60ff60f81b881681526000602060e08184015261105960e084018a610f23565b838103604085015261106b818a610f23565b606085018990526001600160a01b038816608086015260a0850187905284810360c0860152855180825283870192509083019060005b818110156110bd578351835292840192918401916001016110a1565b50909c9b505050505050505050505050565b600080600080600080600060e0888a0312156110ea57600080fd5b6110f388610f83565b965061110160208901610f83565b95506040880135945060608801359350608088013560ff8116811461112557600080fd5b9699959850939692959460a0840135945060c09093013592915050565b6000806040838503121561115557600080fd5b61115e83610f83565b915061116c60208401610f83565b90509250929050565b600181811c9082168061118957607f821691505b6020821081036111a957634e487b7160e01b600052602260045260246000fd5b50919050565b808201808211156103be57634e487b7160e01b600052601160045260246000fd5b634e487b7160e01b600052602160045260246000fdfea2646970667358221220d01f1b76deea776fc06123c28b21dfc30840a4c68addd0cf87ede60920f496fb64736f6c63430008140033",
  "linkReferences": {},
  "deployedLinkReferences": {}
}